:020000040800F2
:1000000000500020B1360008E5360008E53600084B
:10001000E5360008E5360008E53600080000000077
:10002000000000000000000000000000E5360008AD
:10003000E536000800000000E5360008E536000857
:10004000E5360008E5360008E5360008E536000824
:10005000E5360008E5360008E5360008E536000814
:10006000E5360008E5360008E5360008E536000804
:10007000E5360008E5360008E5360008E5360008F4
:10008000E5360008E5360008E53600085924000882
:100090005D240008E536000855240008E536000810
:1000A000E5360008E5360008E5360008E5360008C4
:1000B000E5360008E5360008E5360008E5360008B4
:1000C000E5360008E5360008E5360008E5360008A4
:1000D000E5360008E5360008E5360008E536000894
:1000E000E5360008E5360008E536000800000000A7
:1000F0000000000000000000000000000000000000
:1001000000000000000000005FF808F110B5054C89
:10011000237833B9044B13B10448AFF300800123B3
:10012000237010BD4003002000000000E89200088A
:100130000C4B43B10C4810B50C49AFF300800C4890
:10014000036823B910BD0A48036833B97047094BE7
:10015000002BF7D0BDE810401847064B002BF5D018
:10016000184700BF00000000E89200084403002088
:100170003C03002000000000154B002B08BF134B70
:100180009D46A3F5803A00218B460F461348144A3A
:10019000121A05F030FF0F4B002B00D098470E4B82
:1001A000002B00D098470020002104000D000D48CE
:1001B000002802D00C4802F0B4FF05F0D9FD200061
:1001C000290002F06DFF02F0A9FF00BF0000080047
:1001D0000050002000000000933000084003002081
:1001E0005414002023310008000000000368184761
:1001F00008B10B68036070477047000008B50548F8
:1002000005F061FA044B054A1860137843F00803BF
:10021000137008BDF8090020BC0B0020C90900209C
:1002200038B5B0F90030044601330D4604D13A2206
:100230000549064805F05AFB636815B1E26813608A
:1002400038BD2269FBE700BF438600089E86000890
:1002500070B5084E084D074805F038F940B1EC7804
:100260003046631CEB7005F0CBF82C44E071F2E7EC
:1002700070BD00BFF40A0020A505002038B50D4B65
:100280000D481A780D4C6FF3C3021A7005F01BFA73
:1002900023680B4D9842084805DB05F014FA2368E3
:1002A000C01A286038BD05F00EFA2368C01A01385C
:1002B000F7E700BFC9090020F8090020BC0B0020A7
:1002C000C009002010B5114804F0B2FF01281CD16C
:1002D0000F4805F0F8F90F4C2368C01AB0F57A7F83
:1002E00006D210BD0C4A13780133DBB2137010BD77
:1002F000074805F0E8F9094A206013780133DBB2BA
:100300001370074B1B785B07ECD410BDE40400208E
:10031000F8090020DC090020B10B0020B00B002000
:10032000CA09002010B5114804F082FF01281CD131
:100330000F4805F0C8F90F4C2368C01AB0F57A7F52
:1003400006D210BD0C4A13780133DBB2137010BD16
:10035000074805F0B8F9094A206013780133DBB289
:100360001370074B1B785B07ECD410BD2C050020E5
:10037000F8090020E0090020B30B0020B20B002098
:10038000CA09002038B504460D461422002105F0A4
:1003900032FE2046294605F00CFA204638BD38B515
:1003A00004460D4605F0C6FA2046294602F064FDD3
:1003B00005F0EAFA204638BD38B504460D4605F08A
:1003C000B9FA2946204602F0C8FDBDE8384005F0DC
:1003D000DBBA000010B50F4805F082F90E4C236817
:1003E000C01A642814D90B4805F07AF90B4B206029
:1003F000196801230A4C0B482268934023EA010143
:10040000FFF70EFF236801331D2B88BF00232360F5
:1004100010BD00BFF8090020D4090020F000002022
:10042000F0090020900300202A4A10B514462A4BF8
:1004300003F1100153F8040B8B4242F8040BF9D17D
:100440001B781370254B264A03F1100153F8040B57
:100450008B4242F8040BF9D119889B781180937074
:1004600020496422204805F0BBFD204B204A03F1BF
:100470000C0153F8040B8B4242F8040BF9D11B78A2
:1004800013701C4B1C4A03F1380153F8040B8B42C8
:1004900042F8040BF9D11B881380184B184A03F15A
:1004A0000C0153F8040B8B4242F8040BF9D11B8862
:1004B00014491380144ADD3913681448C4F8DD3038
:1004C0005368C1F8E1309368C1F8E530BDE81040E9
:1004D00001F014BC090A0020A685000892850008D6
:1004E0001A0A0020118600082D0A002084850008C1
:1004F000910A0020E28500089E0A0020C6850008B7
:10050000D80A0020E60A0020D5850008080A002045
:1005100000F15A03DBB2B42B10B512D8B4220A4B47
:100520001C885B881B1B93FBF2F1424201FB0222F9
:10053000022193FBF1F323441344044A107018463C
:1005400010BD40F2AA53FAE7F4090020B8090020D0
:10055000552370B58EB08DF804304E238DF80530DC
:1005600045238DF8063052238DF807303A238DF855
:10057000093041238DF80A304D23002241788DF84F
:100580000B300144CB7A0446A62B8DF8082000F0EE
:100590004B8137D8A22B00F0E8800DD8A02B00F0BB
:1005A000A680A12B00F0C280DD238DF80C3004233F
:1005B0008DF80830092381E0A42BAF4A00F00581B3
:1005C00040F2EB80087BAD4B58B1487B1070887BC4
:1005D000507010881880C87B097C10705170118889
:1005E0005980A5218DF80C1019885B888DF80D10A5
:1005F000C1F3072113808DF80F308DF80E10C3F36F
:100600000723DBE0F02B00F0A7802DD8A72B00F00C
:100610001D81EE2BC8D18DF80C300D238DF80D30D7
:10062000052397488DF8083001F09AFB6578691D1D
:10063000C9B2C1F58073E82B54DC924BC5F1FB05C0
:10064000EDB207312A462144184605F0C9FCC5F130
:10065000E902D2B2E11D284405F0C2FC894988486C
:1006600001F04CFB0A2329E0F22B00F0D38016D3D3
:10067000F32B99D18DF80C30834B1B788DF80D300E
:10068000824B1B78C3F340138DF80E30804B1B78E0
:100690008DF80F3007238DF808300C230EE0F1237E
:1006A0007C488DF80C3001AB1344115C01320D2AEB
:1006B0005972F8D111238DF8083016230020054611
:1006C000C1B2994200F10100627980F2CE800EAE93
:1006D000314411F8341C561C224466714D4082F896
:1006E0000711EDE72144E92207316648B4E76A4A79
:1006F0008DF80C3013888DF80D30C3F307238DF877
:100700000E3053888DF80F30C3F307238DF8103067
:100710009388594A8DF811301380C3F307238DF85D
:1007200012300A238DF808300F23C7E7524A087B9E
:100730001070487B5070887B9070C87BD0701568B3
:10074000564805600D7C15704D7C55708D7CC97CBC
:100750009570D170126842608DF80C300D238DF8C1
:100760000D3005238DF808307CE7484D8DF80C30AE
:100770002B789B07F2D491F90C00FFF7C9FE0146D4
:100780004748FFF719FE474804F0AAFF464B186098
:100790002B7843F002032B70E0E7A3238DF80C3095
:1007A000424B1B681360C3F307228DF80E20C3F37E
:1007B00007428DF80D308DF80F201B0E8DF810308C
:1007C00008238DF808300D2378E739498DF80C306F
:1007D0000B68C3F307208DF80D308DF80E00C3F3BE
:1007E00007401B0E8DF810304B688DF80F0013601A
:1007F000C3F307228DF811308DF81220C3F307429E
:100800001B0E8DF814300C238DF813208DF8083052
:10081000112353E7A22305228DF80C300A238DF80B
:1008200008208DF80D3049E78DF80C30012312496E
:100830008DF80D300B808DF80E208DF80F308DF86F
:1008400010208DF811308DF812206AE78DF80C30E9
:10085000094B8DF80D201A808DF80E208DF80F2091
:100860008DF810208DF81120EDE7531C63711444AE
:1008700084F807510EB070BDB4090020F4090020BF
:10088000080A0020090A0020E5090020C909002003
:10089000A4050020B885000850040020E8090020C5
:1008A000C4040020F8090020B40B0020C009002077
:1008B000A8040020F8B50446C778324D324E23799B
:1008C0009F425DD02A78062A3ED8DFE802F0040F66
:1008D000182028303F005A1C22712344DB79552B05
:1008E000EDD101232B700023A370E8E75A1C22717D
:1008F000E218D2794E2A26D102232B70DFE75A1C48
:100900002271E218D279452A1DD10323F5E75A1C3A
:100910002271E218D279522A15D10423EDE75A1C2C
:10092000637022712344DB7933700523E5E75A1C99
:100930002271E218D2793A2A05D106232B70337836
:1009400083F03603D0E723710023D6E73278012AFB
:1009500006DD591C21712344DB79A1784B40A3703B
:10096000531EDBB23370002BA9D12B702379A278F0
:100970002344DB799A42A2D12046FFF7E9FD9EE7A6
:10098000F8BD00BFC80900207805002038B50279FD
:10099000C37804469A420D4601D0FFF78BFFA37936
:1009A00062799A421AD075B10D4804F0A0FDA8B141
:1009B000A3790B485A1CA2711C4494F80711BDE896
:1009C000384004F02CBD5A1CA27103F207112144D7
:1009D0000122BDE83840034801F0A4B938BD00BF8A
:1009E000F40A0020080A002010B50F4801F0B2F9FF
:1009F0000E4CB0B10E4804F073FE2368C01A42F2E8
:100A00000F7398420ED90A4804F06AFEF021206064
:100A10000848C378C218D1724370BDE81040FFF790
:100A200097BD206010BD00BF080A00207C05002093
:100A3000F8090020AC070020F8B5194C23789B0773
:100A40002CD5184D184E95F9003096F90020174F07
:100A50009342A3EB0203B8BFC3EBC3335B0014485C
:100A60003B8004F03DFE134B1B68C01A3B88984244
:100A700014DD237810486FF341032370F224C37808
:100A8000C2184370D472FFF763FD0C48C378C218D4
:100A90004370D472FFF75CFD33782B70F8BD00BF54
:100AA000C909002074050020B8090020760500203F
:100AB000F8090020B40B0020AC070020A505002099
:100AC00043780246032B1AD8DFE803F00702160E1C
:100AD000037802203BB9507070470378012B01D195
:100AE00003235370022070470378012B02D1437017
:100AF000184670470023F4E700780028EBD0012364
:100B0000EFE70000F8B500234FF6FF770D4C0E4ECF
:100B10000E4D23702378022B0EDC304604F040FB90
:100B20002378184110F0010014BF25F8137025F840
:100B3000130001332370EDE7034804F031FB044B4D
:100B40001870F8BD010400200404002050040020A7
:100B50000004002070B5504CB4F90030013304D1CA
:100B600048224E494E4804F0C1FEA36862681B68E3
:100B700013404C4A00D001234A481370FFF7A0FFEE
:100B8000494CA0B101281CD0237859060BD5474BFE
:100B90001B7843B1464804F0A3FD464B1B68C01ABE
:100BA000B0F57A7F74DA23785A0662D570BD404872
:100BB00004F096FD3F4B1860237843F04003237008
:100BC00070BD23783A486FF3861313F02006237024
:100BD000384D3BD104F084FD2B68C01A642807DD32
:100BE000334804F07DFD2B68C01AB0F57A7F47DBEF
:100BF0002F4804F075FD2B68C01AB0F57A7F14DD1C
:100C00002B4804F06DFD2B68C01A41F287339842DF
:100C10000BDC264B1B7843B10122274B1A7023783B
:100C200043F02003237000E01670F3242348C378B8
:100C3000C218D4724370FFF78BFC2148C378C218E6
:100C4000D4724370BDE87040FFF782BC04F048FDE9
:100C50002B68C01A40F6B8339842E6DD0023164AE6
:100C60001370227863F345122270164A13605360A2
:100C7000DBE713F0200318BF01230F4A137070BD88
:100C80000A4A13780133DBB2032BCDD81370CCE7BB
:100C90000222094B1A7070BDB00400204386000880
:100CA0009E86000880050020C9090020E509002073
:100CB000F809002084050020D1090020AC0700209D
:100CC000A5050020E809002038B52D4C236803F164
:100CD0006402C82A1AD8002B3ADA01212948FFF702
:100CE0009FFA00212848FFF79BFA6FF0DB01236889
:100CF00059432648FFF760FB25683DB9294621483E
:100D0000FFF78EFA29462048FFF78AFA636803F155
:100D10006402C82A32D8002B25DA00211C48FFF7CC
:100D20007FFA01211B48FFF77BFA6FF0F901636836
:100D300059431948FFF740FB6468FCB92146144841
:100D4000FFF76EFA2146BDE838401248FFF768BA4F
:100D500000210C48FFF764FA01210B48FFF760FA05
:100D60002368DC21C4E701210948FFF759FA002173
:100D70000848FFF755FA6368FA21D9E738BD00BF84
:100D8000E80900208004002094040020780300205B
:100D9000580400206C0400206003002070B50C484B
:100DA00004F09EFC0B4E3368C01AB0F57A7F0DD369
:100DB000094D0A4B2A780A4C1A60227804485A6076
:100DC00004F08EFC002330602B70237070BD00BFD8
:100DD000F8090020DC040020B00B0020A80400204B
:100DE000B20B002070B5304C304E94F90030304DCD
:100DF000002B14DB0020FFF78BFB01462D48FFF78B
:100E0000DBFA96F90030002BBBBF102293FBF2F304
:100E10001B115B422B60237843F08003237026492B
:100E20002B680A789A4203D3244A1078834223D944
:100E300096F90030002B12DA1E226FF01D00204BB5
:100E400083E805001F4B1A786FF300021A7070BD1B
:100E500001211170227863F3C712227070BD22D075
:100E60006FF01D021E21164B83E80600154A137809
:100E700043F00103137070BD00230B7040F29161C9
:100E800013700F4A0F48136053600F4A2B601268AB
:100E900005783B3A63F382058A42337005700B4A4A
:100EA000D6D90221D5E770BDC9090020B9090020B3
:100EB0005C030020C4040020B30B0020B10B002011
:100EC000E8090020CA090020C0090020B80B002052
:100ED00038B5354C23789A0752D413F0800F334D30
:100EE00010D1334804F0FCFB324B28601B7813F020
:100EF000010F0CBFA6225A222F4B1A70237843F001
:100F0000800323702A4804F0EBFB2B68C01AB0F56D
:100F1000967F1DDD264804F0E3FB264B28601B78F6
:100F200013F00101244B1A782BD10A3252B25A2AFB
:100F30001A7031DC93F90000204B1870FFF7E8FAC3
:100F400001461F48FFF738FA237843F00203237065
:100F500040F291621B4B1B683B3B934210D8154AF1
:100F60000321137843F0040313700023164A13700F
:100F7000164A1370164A1170227863F3C712227052
:100F800038BD0A3A52B21A705A32D3DA22786FF365
:100F9000C71222705A2204E0227861F3C71222702D
:100FA000A6221A70C6E700BFC9090020C00B0020A6
:100FB000F8090020CA090020D0090020B909002042
:100FC000C4040020C0090020B30B0020B10B002096
:100FD000B80B0020184B1A78531E052B27D8DFE8D2
:100FE00003F003260B13191F8100144B084483E8F8
:100FF0000300134B1A701EE0104B00EB80011960C8
:1010000000EB40005860F4E70C49830018440B6083
:101010004860EEE706235843084B18605860704755
:10102000064B00EB4001196000EB8000EAE702F09C
:10103000FD03052BDDD1704700040020E8090020E6
:10104000D809002070B5614D2B78013B032B00F2CD
:10105000A380DFE803F0022467915D4B5D4C93F9B8
:101060000020002A12DB6FF0180019215A4A82E88A
:1010700003001A7842F080021A70584A137843F03D
:10108000040313700023564A237013702378092B2E
:1010900040F38280524E3378092B7EDC70BD40F6DF
:1010A00054324B4C4C4E94F90030002BA2BF2378A5
:1010B00043F0800323704B4B1B68934209D90322F2
:1010C00000232A702278736063F3C71222703360A2
:1010D00070BD3A22C3F59163B3FBF2F3424A136049
:1010E000C3F1230223337360404B32601B78062B1D
:1010F00052DC3F4804F0F4FA3E4B18600020FFF742
:1011000007FA01463C48FFF757F900223260726047
:1011100006213A4B1970237803F0EF0362F3C713EB
:10112000237070BD2A4C94F90030002B08DB2F216E
:101130001422294B83E80600237843F080032370B0
:10114000284B1A6840F653339A4205D802232B7075
:1011500023786FF3C7132370244B1B78062B1BDCFB
:101160000020FFF7D5F901462348FFF725F90022B3
:10117000194B1A605A60CBE71D4804F0B1FA1D4BB9
:101180001B68C01AB0F57A7F06D9114B1A786FF335
:10119000C7121A7002232B7070BD5A20FFF7B8F9DE
:1011A00001461548FFF708F900230B4A1048136061
:1011B00053600A4A23701178337063F3820111700F
:1011C00004F08EFA0B4B18600423E4E7B80B002000
:1011D000C9090020B10B0020E8090020CA0900203D
:1011E000B30B0020C0090020C40900200004002027
:1011F000F8090020CC090020C4040020D8090020F0
:1012000070B57C4D2B78032B38D8DFE803F002381B
:10121000699C794C794E94F90030002B12DB002246
:10122000774B6FF059001A70FFF772F90146754855
:10123000FFF7C2F8744804F053FA2378306043F0A3
:1012400080032370704804F04BFA3368C01A40F2F0
:10125000DC53984212D96D4B1A6840F2CB639A4224
:10126000674B1A7894BF42F001026FF300021A70C4
:1012700023786FF3C713237001232B7070BD5E4C6E
:101280005E4E94F90030002B0EDB5A20FFF740F938
:1012900001465C48FFF790F85B4804F021FA237898
:1012A000306043F080032370574804F019FA336824
:1012B000C01A40F2DC539842E0D9544B1A6840F20D
:1012C000CB639A424E4B1A7894BF42F002026FF3FE
:1012D00041021A7023786FF3C71323700223CCE7FF
:1012E000454C464E94F90030002B0EDB0020FFF7F2
:1012F0000FF901464348FFF75FF8434804F0F0F95F
:101300002378306043F0800323703F4804F0E8F90D
:101310003368C01A40F2DC539842AFD93B4B1A688D
:1013200040F2CC639A42364B1A789ABF42F00402DC
:101330006FF3C30242F00C021A7023786FF3C713E5
:101340002370032399E72E4D314C2B78013B0B2B57
:101350004DD8DFE803F006294C391437484C4C4C83
:101360004C4A05F0D5F82B4A002800F0010013780C
:10137000B8BF404260F345139906137001D50423AA
:1013800000E006232370F3242348C378C218437077
:10139000D472FFF7DDF82148C378C2184370D472C5
:1013A000FFF7D6F8002368E705F0B2F8194A0028DD
:1013B000137800F00100B8BF404260F3451313708A
:1013C0009A06DED50323DDE705F0A2F8114A0028CE
:1013D00000F001001378B8BF404260F3451313706A
:1013E0009B06EFD4CBE70523CCE70723CAE700230E
:1013F000C8E700BFB90B0020C9090020CC090020B4
:10140000A4050020C4040020F8090020C009002021
:10141000E4090020CA090020AC070020A50500202F
:10142000074B1B78072B18BF0022064B1DBF1A6005
:101430005A60054B83E8030018BF1A70704700BF5D
:1014400000040020E8090020E4090020C36810B56A
:1014500004460BB19B689847204610BDC36810B581
:1014600004460BB19B689847204610BD70B50646F0
:1014700004460B4B00F1B80546F8983BB54204D042
:10148000103D2846FFF7EAFFF8E704F13800FFF7C0
:10149000DDFF04F12800FFF7D9FF204670BD00BF33
:1014A000E88E000810B50446FFF7E0FF2046BC2197
:1014B00004F0CEFA204610BD10B50446024B03607E
:1014C000FFF7D4FF204610BDD08E00087FB524481A
:1014D00004F0F9F8234D244C2B68C01A234B984292
:1014E0000DDD1F4804F0EFF8237828606FF38203C6
:1014F0002370DBB21A0744BF6FF3C3032370237852
:1015000013F0040614D101211948FEF789FE14488E
:1015100004F0D9F82B68C01A0A2807DD31461448B0
:10152000FEF77EFE237843F00403237004B070BD01
:1015300013F0080F0F4B0AD10F4A69460F4800926B
:10154000039303F0DDFE6846FFF788FFEEE70C4AE1
:1015500069460A480092039303F0FCFEF3E700BFDC
:10156000F8090020BC090020C9090020A08601005C
:10157000EC03002078850008FD010008A40300208A
:101580007D02000800262DE99F48B84804F07CF849
:10159000B74BDFF85C931E70B64DB74B4FF4E1319B
:1015A000B648B74C1E7089F800602E7003F07AFFC1
:1015B000B44B32466946B1480093039404F01CF8DA
:1015C0006846FFF74BFFB04800F05CFE4FF4FA7836
:1015D000FEF72AFF4FF41663AC4F7B80A7F800801C
:1015E00004F0A8F91421AA4801F0B2FC04F0CCF9E7
:1015F0007988A748FEF7E0FE404604F0EEF9398806
:10160000A348FEF7D9FE404604F0E7F940F2AA519C
:101610009F48FEF7D1FE04F08DF946F2A8119D48CF
:1016200001F0CEFB04F0B0F904F084F946F2A81101
:10163000994801F0C5FB04F0A7F98C4804F050F874
:10164000964B974F1860894804F03DF8954B186009
:10165000864804F045F83860844804F034F8924B2A
:101660001860824804F02FF8904B69461860904B40
:1016700090480093039403F043FE6846FFF7EEFEA4
:101680008D4B69468D480093039403F039FE6846FC
:10169000FFF7E4FE304604F0BDF904F011FF4C46BC
:1016A000724EDFF85092CB46774800F01DFDFEF7F2
:1016B00091FE01218248FFF769F900218148FFF777
:1016C00065F9FFF791F9304604F00AF83B68C01A53
:1016D000132807DD304604F003F83860FFF73AFAC4
:1016E000FFF710FAFFF7F2FEFFF758FBFFF7A4F938
:1016F000FFF7EAFA99F80030DFF8FC81032B09D8EC
:10170000DFE813F004002A007C0010014FF055328E
:101710006D4B1A6098F80020002AC5D101216B4B4F
:1017200030461A706A4B1A70237862F3C71323701D
:101730002B7862F3C30362F3410362F3041362F391
:101740008203DBB2634A43F040032B70117003F055
:10175000C7FF614B1860A4E798F80030012B2BD02D
:1017600026D3022B2AD023789906D3D5594B1A7841
:10177000022A39D0032A3ED0012ACBD1574A106819
:1017800040F27D229042564A1AD94FF06F0E00F176
:101790000051A1F27E21C900B1FBFEF114311160AC
:1017A000516040F2CC629042B4D902221A70B1E783
:1017B0000122454B1A60D6E75F22FAE7494AF8E76B
:1017C000A0F13A03B3F5E87F9FBF6FF004031D213A
:1017D000434303F6322397BFB3FBF1F300231433E3
:1017E0005B421360536095E7FFF772FB00223C4BAE
:1017F0001A605A608EE7FFF7F5FA8BE798F8003029
:10180000012B00F0858079D3022B00F086802378AD
:101810009A067FF57FAFDB0600F181800820FFF795
:10182000D9FB314B1B78072B0BD11E226FF01D010A
:101830002E4B1B78032B2A4BCEBF83E806001A6081
:101840005960264B1A6840F265339A423FF662AF00
:101850002A7823786FF304122A70012243F01003D0
:101860006FF3C71323701B4B1A70BFE7F8090020F2
:10187000E0040020CA090020E1040020F40A00204E
:101880007885000851020008080A0020F4090020A9
:10189000C40400207803002060030020DC04002042
:1018A000A0050020BC090020E0090020DC09002080
:1018B000C5020008E4040020250300082C050020D0
:1018C000A5050020AC070020F0000020B10B00208F
:1018D000B30B0020B80B0020C40B0020C00900206F
:1018E000E80900200104200000040020D80900209D
:1018F000C9090020E5090020D10900200522594B23
:101900001A60237803F07F036FF3041323707EE7DC
:1019100040F25F12534B1A6079E7534AFAE7FFF738
:1019200091FBF7E698F80030012B25D020D3022B4D
:1019300025D0237898067FF5EDAEDFF84CA19AF814
:101940000020072A3FF6E6AE01A151F822F000BFC1
:1019500085190008E719000815170008ED19000897
:10196000F7190008FD190008051A00080B1A0008ED
:1019700015223C4B1A60DCE740F25F52F9E7394B25
:101980003A4AF7E70620FFF725FB304603F0A8FEAA
:10199000374B1B68C01A374BB0F5FA6F1B7812D95A
:1019A000072B7FF4B7AE0023334A13605360012244
:1019B0008AF80020314A1370314A1370227863F399
:1019C000C7122270A6E6072B7FF4A4AE2D4B14227B
:1019D0001B786FF01301032B274B02DC1A60596050
:1019E00098E6196005E7FFF70BFC93E61F2110202E
:1019F000FFF716FD8EE610211F20F9E76FF01D019D
:101A00001E20F5E71E210846F2E713F0800FDFF8ED
:101A100060A00ED16FF063016422174B304683E85B
:101A2000060003F05DFE2378CAF8000043F080034F
:101A30002370304603F054FEDAF80030C01A40F646
:101A4000B83398427FF666AE00230B4A8BF800301D
:101A500013605360227888F8003063F3C712227055
:101A600058E600BFF0000020050A14001554A0023B
:101A7000CC09002000040020E8090020B90B002058
:101A8000A4050020D8090020E409002010B5044670
:101A9000FFF712FD2046BC2103F0DAFF204610BDFF
:101AA00070B5494D494C8EB04FF416530A220921A6
:101AB000284603F09BFC224645492846454D01F047
:101AC0002BFB2D214448FEF75DFC14220021284603
:101AD00004F091FA414E2846042103F050FE404D97
:101AE00008214048FEF75BFC1C21304603F0D2FB86
:101AF00022462946304601F00FFB1D213A48FEF7E9
:101B000041FC4FF0FF33394E0C930B930A9309932A
:101B10000893079306930593049303930293019309
:101B20000093012202230021304603F0CFFA22461F
:101B30002F49304601F0F0FA1F212E48FEF722FC13
:101B40001E212D48FEF71EFC17212C48FEF71AFC1B
:101B500016212B48FEF716FC2A4E10212A48FEF7C4
:101B60001EFC11212948FEF71AFC1921304603F00A
:101B700091FB3046264E2246294601F0CDFA182127
:101B8000304603F087FB22462946304601F0C4FA6E
:101B90000B212048FEF703FC1F4803F0B7FD00228D
:101BA0001E4D1F4B1F491A702846CA1C4FF48073E4
:101BB000073100F07FF8224628461B490EB0BDE8E9
:101BC000704001F0A9BA00BFF40A0020EC00002028
:101BD000B9140008B004002090030020A4030020E2
:101BE00039520008C4040020EC0300200404002043
:101BF00095500008580400206C0400208004002048
:101C000094040020E40400207803002060030020F6
:101C10002C05002088050020F8090020080A002073
:101C200080050020AC070020F91C00082DE9F047D2
:101C3000194E1A4F1A4D184803F048FC48B33B7828
:101C40002BB9184B93F80080B8F1000F08D06C78CE
:101C50003046631C6B7003F0D3FB2C446071EAE7E1
:101C6000114C3046236893F80090104BD3F800A035
:101C700003F0C6FB0AF809002268137801331370D9
:101C800023680B4A197812689142D4D983F80080EE
:101C9000D1E7BDE8F08700BF180E0020CE0D002070
:101CA000C80B0020F4000020F80D0020E00D0020FB
:101CB000D80D002010B5094C216009490A60094A75
:101CC00013600023084AD370537013719370074A4E
:101CD0001370074A1370074A137010BDE00D0020FF
:101CE000F80D0020D80D0020C80B0020D00D0020DA
:101CF000CF0D0020CD0D0020704700000122054BC4
:101D00001A700A22044B1960044B1A700022044B0B
:101D10001A707047CE0D0020D40D0020C80B002093
:101D2000DD0D00200023F0B51D46094CE778F818BA
:101D30005E1CDBB29342C0B206DACB5C204480F872
:101D4000053101253346F2E705B1E070F0BD00BF73
:101D5000C80B0020014B1878704700BFDD0D002034
:101D60000022014B1A707047D00D002008B50848BA
:101D700003F0BDFB58B1074B05481A79511C197186
:101D8000134493F80511BDE8084003F048BB08BDB3
:101D9000180E0020C80B0020F0B50026304635464E
:101DA000134B5F789C78A7421DD003EB040E9EF87E
:101DB00005C011F805E0E64508D10135EDB211F88E
:101DC00005E0BEF1000F08BF0120F2E7012806D1AF
:101DD000012A04D106B19C7000F00100F0BD01346D
:101DE000E4B20126DFE7002EF6D09F70F4E700BFD3
:101DF000C80B0020F8B5B24C064623780B2B7BD8D5
:101E0000DFE813F00C0037005D00A5007A00CB007E
:101E1000F90022017A007A007A004C01A94D2B7852
:101E20002A460A2B14D1EB784C1E103114F8015FAE
:101E3000581C0A2D1344C0B283F8055103D1D07049
:101E40000823137054E08C420346EFD1D370F7E7B8
:101E500000229D49FFF7A0FF9C4B002800F0F08076
:101E600000221A700A232B70012399490A702370EB
:101E700042E0944D2B782A460A2B10D1EB7801F1E1
:101E80001104243114F8015B581C0A2D1344C0B20C
:101E900083F80551D3D08C420346F3D1D6E7002214
:101EA0008949FFF779FF894B002800F0C98000229B
:101EB0001A700A2386492B700A700223D7E7814DD6
:101EC0002B782A460A2B2ED1EB7801F12404883195
:101ED00014F8015B581C0A2D1344C0B283F8055155
:101EE0001CD1D0700823137041F28832794B1A80CC
:101EF000774A137801331370754B1B78032BC2BFDD
:101F00000022754B1A70714B1A78032A40F3D78060
:101F100000221A700A226B4B1A70F8BDA1420346C8
:101F2000D6D1D070DEE700226749FFF735FF674B57
:101F3000002800F0858000221A700A2364492B7063
:101F400003230A7014222370624B1A80D4E75D4D7C
:101F50002B782A460A2B11D1EB7801F188049531B0
:101F600014F8015B581C0A2D1344C0B283F80551C4
:101F70003FF465AF8C420346F2D167E70022524935
:101F8000FFF70AFF514B00285AD000221A700A238B
:101F90004F492B700A70052369E74A4D2B782A4672
:101FA0000A2B17D1EB7801F19504CF3114F8015BBE
:101FB000581C0A2D1344C0B283F8055105D1D070C6
:101FC0000823137040F2DC5290E7A1420346EDD1A2
:101FD000D070F5E700223C49FFF7DEFE3B4B78B3BB
:101FE00000223B491A700A700F223A4B1A800A23CA
:101FF0002B7006233BE7334D2B782A460A2B11D151
:10200000EB7801F1CF04DD3114F8015B581C0A2D87
:102010001344C0B283F805513FF411AF8C4203461C
:10202000F2D113E700222849FFF7B6FE274B38B15B
:1020300000221A700A2326492B700A70072316E71C
:102040001A7801321A7057E71E4D2B780A2B15D1DA
:10205000EB7801F1DD00E93110F8014B5A1C0A2C34
:102060002B44D2B283F8054103D1EA7008232B70C8
:102070003EE781421346EFD1EA70F7E700221249AA
:10208000FFF78AFE114F024688B914493046FFF720
:1020900083FE60B93B7801333B702DE704220E4B81
:1020A0001A7000220E4B1A7001220E4BCAE7002351
:1020B000074A3B7013700A232B700B23D7E6F8BD39
:1020C000DC0D0020C80B0020B6860008CF0D0020D4
:1020D000CD0D0020F6000020D00D0020BA860008AB
:1020E000CE0D0020DD0D002038B5554D04462B786F
:1020F000042B00F2A380DFE803F0032D555B7A0088
:10210000504803F0E0FA504C2368C01AB0F5FA7F4B
:10211000C0F094804B4803F0D6FA20604B4CB4F9E1
:102120000030013304D1482249494A4803F0DEFB1C
:10213000A3681A6863681A42B4F9003060D00133AA
:1021400004D13A224249434803F0D0FB2369626834
:102150001A6038BD3B4803F0C3FA3F4B1B68C01AF6
:1021600042F20F73984204D900223C4B1A700223AA
:102170002B70344803F0B4FA394B1B68C01AB0F521
:10218000FA5F5BD3002237492046FFF705FE00289F
:1021900054D00322344B1A700022304B1A700223A1
:1021A0002B7038BD314B1B78002B47D00323F7E74A
:1021B0002F4D2979EA78914201D0FFF7D7FD2B788E
:1021C000082B0DD11F4803F08BFA234D2B68C01A42
:1021D000284B1B88984231D31A4803F081FA2860B3
:1021E000254B20461968BDE83840FFF703BE204B59
:1021F0001A79DB789A4221D0BDE83840FFF7B6BDA6
:10220000013304D13A221249124803F06FFBE3680C
:1022100062680C481A600023134A137001222A7066
:10222000164A1370164A137003F05AFA0A4B1860D4
:10223000044803F055FA0A4B186038BD38BD00BF9A
:10224000D00D0020040E0020000E0020E40D002020
:10225000438600089E860008FC0D0020F400002044
:10226000140E0020BD860008DC0D0020CE0D0020DD
:10227000C80B0020F6000020D40D0020CF0D002058
:10228000CD0D00201FB5144CB4F90030013304D13A
:102290003A221249124803F029FBE3686268694652
:1022A0001A60104B002200930F4B1048039303F069
:1022B000A3F96846FFF7D2F80D4803F0E5F90C489A
:1022C00003F00EFA0B4B1860094803F0FCF90A4BB7
:1022D000186004B010BD00BFE40D00204386000864
:1022E0009E8600082D1C000878850008180E002026
:1022F000040E0020140E0020000E002010B50E4C1D
:102300000E4803F003FA14220021204603F073FE66
:1023100020460B4C032103F04CFA1B221A212046C5
:102320004FF4E13303F062F82046BDE81040054A5F
:10233000054900F0F1BE00BFE40D0020040E0020AE
:10234000180E0020EC000020B91400083A4970B5BE
:102350004B693A4CDB0721602FD58A68384B3848E7
:1023600013401D1A8A68374B684203EA0203354A54
:1023700068419E1A8D68344B724203EA0503324D60
:102380007241C5EB030CDCF1000343EB0C0308B115
:1023900001258D601AB128494FF480758D601BB1FD
:1023A00025494FF480358D6008B902B92BB1274B10
:1023B000274A1B681068012198472368DA685B691F
:1023C000920707D09E0705D5204B214A1B6810684D
:1023D00000219847236899695A698D075B6909D577
:1023E000900507D5190405D5184B194A1B681068C4
:1023F0000521984723689E695D69C6F38006C5F389
:1024000080255B6946B13DB11A0405D50F4B104AD2
:102410001B6810680721984723685B6956B14DB166
:102420001B0407D5BDE87040084B094A1B681068BB
:102430000221184770BD00BF00640040D40E002088
:10244000030000040003000800000310140F002024
:10245000180F0020FFF77ABFFFF778BFFFF776BFAE
:1024600010B50C4CA268A4681346B4F1006F0CD1EF
:10247000131F094A53F8044F42F8044F074CA24275
:10248000F8D1044A4FF000539360103043F8201005
:1024900010BD00BF00ED00E0FCFFFF1FE8000020C2
:1024A000431C10B5044604D106480749262203F010
:1024B0001DFA2046002100F0DDFA04F00F0401208F
:1024C000A04010BDA38600088488000870B50446AB
:1024D0004B1C0E46218010D0C1F3031000F080FA8F
:1024E00005463046FFF7DCFF05F10803A36005F160
:1024F000100314356060E360256170BDB0F9000021
:1025000000F058BB38B5B0F90030054601330C4631
:1025100004D108480849492203F0E8F9012CB5F92B
:10252000000008BF2146BDE8384018BF002100F078
:10253000A1BA00BF9E860008848800082DE9F041FA
:1025400007468846144E4C2404FB006400250434DE
:1025500045451ED04C237B430121F35801FA05F277
:102560001A4213D00D4A236B506901FA03F3034258
:10257000D4F818E00AD05361206838B1DEF808209A
:102580001342074B08BF02211B68984701350434EA
:10259000DEE7BDE8F08100BF1C0F00200004014011
:1025A0003011002000200121FFF7C8BF01200146A3
:1025B000FFF7C4BF02200121FFF7C0BF03200121A4
:1025C000FFF7BCBF04200121FFF7B8BF052001467B
:1025D000FFF7B4BF06200146FFF7B0BF2DE9F74F64
:1025E0009B464B1C81460D46019266D001F00F08B8
:1025F00008F1FF33C1F303100E2B09D8DFE803F015
:102600000C1014181C1C1C1C1C2020202020200036
:102610002C4F0024062616E02B4F0124072612E03B
:102620002A4F022408260EE0294F032409260AE037
:10263000284F04240A2606E0274F0524172602E027
:10264000264F0624282600F0CBF94FFA86FA009090
:102650000721284600F00EFA50463946FFF700FFE2
:1026600006F01F01012202FA01F01D494FEA5A1338
:1026700041F823001B4B89F8006053F828604C2375
:1026800063431949A9F80C5002FA06F5CA5800200C
:102690002A43C9F80440C9F80800CA50132303FBB1
:1026A0000464009A01EB8403DA61C3F804B0C3F850
:1026B0003480019A0D4B1A6000E0084603B0BDE873
:1026C000F08F00BFA5250008AD250008B52500083E
:1026D000BD250008C5250008CD250008D525000822
:1026E00000E100E0CC8800081C0F00203011002021
:1026F000F8B5054644688089164A00F00F03C0F318
:10270000031000F580100126423006FA03F1800222
:1027100052F8237001F0EEF84C2161430E4ABE409E
:102720005358B5F90C0023EA0606132303FB047380
:102730005650002402EB83014C60991D0C3302EBD0
:10274000810102EB83034C605C60214600F086FA55
:10275000AC60F8BDCC8800081C0F0020A2B1012994
:1027600005D18368023B012B08D981601EE0022954
:1027700021D1836823F00203012B03D1032383605B
:10278000082119E0816007E0012907D18368023B35
:10279000012B0DD80223836007210DE002290AD105
:1027A000836823F00203012B02D18360062103E03A
:1027B0008260114600E00C21B0F90C0000F04EBA26
:1027C000F8B52C4B2C4C5E6A1A692360D20712D5DF
:1027D000DA68D7070FD56FF001021A61274B1A6824
:1027E00001321A601A68B3B203EB0243244A136041
:1027F000244B01221A701F4B1A6995071FD5DA68FE
:1028000090071CD56FF002021F4D1A612B889BB2F6
:1028100033B1288880B202F0A9FB00232B800EE0A0
:102820001A4F3B684BB14FF6FF70B6B202F09EFBF9
:102830002E803B68013B3B6001E003F051F82368C8
:102840001A69510714D5DA68520711D56FF00402DE
:102850000F4D1A615C6A2B68E31AB3F57A7F07D3D0
:1028600000F054FF044B04F57A721B689A632C60E5
:10287000F8BD00BF000800401014002074130020B1
:10288000681300204C1400206C13002078130020E3
:1028900034110020274B37B5DA69274C42F0040287
:1028A000DA61DA69002502F004020192019A1A69DC
:1028B00042F004021A611A6922F004021A6102F05D
:1028C0008DFA1E4B1E4A23604FF6FF73E3601D4BCB
:1028D00020461B682561B3FBF2F3013B6360A560F2
:1028E00002F09AF82946204602F066F920460421B3
:1028F00002F062F92268144B516A1E2019601B68AD
:10290000124903F57A739363FFF7AAFD104B4FF05A
:1029100080421A6023682046DA6842F00102DA60D9
:10292000DA6842F00402DA6002F033F8284603B0B5
:1029300030BD00BF0010024010140020000800400D
:1029400040420F00FC00002034110020C127000885
:1029500000E100E008B502F0EDFF962003F03DF83D
:10296000962003F03AF8F8E730B505460C46A1B0DA
:1029700002F0E0FF29466846224604F0E1F8051E11
:1029800003DC03F001F821B030BD094B1B6823B90B
:1029900008480221032200F041FD00241DF8041024
:1029A0000448013400F06EFEAC42F7D1E9E700BF05
:1029B00050130020C41300200FB407B504A951F828
:1029C000040B0191FFF7D0FF03B05DF804EB04B0F6
:1029D000704708B502F002FABDE8084000F084BE76
:1029E0001FB5032833D8DFE800F0020E1A261B4B70
:1029F0001B489A6942F004029A619B6903F0040340
:102A00000393039B27E0154B16489A6942F008028E
:102A10009A619B6903F008030093009B1BE00F4B36
:102A200011489A6942F010029A619B6903F0100301
:102A30000193019B0FE0094B0C489A6942F0200278
:102A40009A619B6903F020030293029B03E008480C
:102A500002F05EFF002005B05DF804FB00100240AC
:102A600000080140000C014000100140001401402A
:102A70000C8900082DE9F043431C87B005460C463D
:102A800004D147484749562202F030FFC5F30310EE
:102A9000FFF7A6FF444B04F00F079A69C4F3021630
:102AA00042F001029A619B69C4F3C31903F0010368
:102AB000ACB2019304F00F08019BB9F1000F44D0B0
:102AC00009F1FF31092940D8DFE801F0050A0F14A8
:102AD0001920272E3338354A536843F0010333E079
:102AE000324A536843F002032EE0304A536843F001
:102AF000040329E02D4A536843F0080324E02B4ADD
:102B0000536823F0300343F010031DE0274A536855
:102B100023F0C00343F0400316E0244A536823F433
:102B2000406343F400630FE0204A536843F440736A
:102B30000AE01E4A536843F4406305E01B4A5368A9
:102B400023F4C04343F480435360012303FA08F3A2
:102B50000293174B02A953F82730049603930323DB
:102B6000059300F001FEA4F10D03012B07D80F4AD5
:102B7000536823F0E06343F08063536009E00F2D56
:102B800007D10A4A536823F0E06343F000735360AF
:102B900002E0133C012CF4D907B0BDE8F08300BF7C
:102BA000A38600082D8900080010024000000140A3
:102BB00084890008F8B5431C07460D4604D1254812
:102BC0002549A42202F092FEC7F30310FFF708FF85
:102BD000BCB204F00F06072E8DBF04F00703B3004C
:102BE00002469B0088BF021D002D31D0022D02D964
:102BF000032D21D0F8BD14680321994021420BD147
:102C0000146808219940214311601168042404FAD2
:102C100003F321EA03031360012D15BF0123C368E9
:102C2000C26805FA06F115BFB340194322EA03034F
:102C3000C16018BFC360F8BD106805FA03F1014216
:102C40001FBF1168042000FA03F30B4318BF136081
:102C5000F8BD00BFA38600082D8900082DE9F041CA
:102C600084B20646C0F303100F46FFF7B9FE04F026
:102C70000F08B8F1070F8BBF04F007044FEA880470
:102C8000A400026888BF42684FF0030303FA04F30C
:102C900094BF0546051D1A4012D129680823A34098
:102CA0000B4016D029680423A3400B4210D1C26800
:102CB000012303FA08F3134214BF0123022308E09F
:102CC0002A680423A34013420CBF0023032300E01F
:102CD000134607F00F013046BDE8F04141EA031109
:102CE000FFF7C8BE30B50268254B89B005460C46D3
:102CF00008461A60002105F0FBFA40B920464FF063
:102D00007E5105F013FB18B14FF07E5400E0002413
:102D1000E86805F0F7F8214605F04CF905F010FBDE
:102D200060230193AB682861B0FBF3F000230393A9
:102D300004930593069307932B7D0290013B032B8D
:102D40001CD8DFE803F008020406042404E0082489
:102D500002E00C2400E00024094801A9224601F009
:102D6000BBFE10B1074802F0D3FD6B7D044821463D
:102D700013B101F059FF01E001F034FF09B030BD9B
:102D800038110020B889000838B5C46894B10069CA
:102D900005F0B8F80546204605F0B4F80146284687
:102DA00005F0BCF94FF07E51044605F0BFFA18B9A2
:102DB000204638BD002038BD4FF07E5038BD0000A1
:102DC0002DE9F041D0F80080264C05460E46C4F8A7
:102DD0000080FFF7D9FF41F21113D8F820200746F1
:102DE00013405BB940F24443D8F8202013402BB97C
:102DF000D8F8003023F00103C8F80030B6F5803F62
:102E0000ACBF4FF4FA730123AB60174B174A1B6832
:102E1000B3FBF2F2AB685343013BB3F5803F636011
:102E200002D3134802F074FDAA68731EB3FBF2F3D9
:102E3000B3F5803FE36002D30E4802F069FD002342
:102E400008482361A36001F001FEEE602846394680
:102E5000FFF748FF2268136843F001031360BDE8E1
:102E6000F08100BF38110020FC00002040420F001C
:102E7000CF890008EB8900087FB504460E46084656
:102E80002C4902F0D5FC2060013004D12A482B499E
:102E90002D2202F02BFD3046264902F0E5FC431CB2
:102EA000054604D126482549312202F01FFDC5F30D
:102EB000C4232375234A2368C5F3004593426575EF
:102EC0000AD1214B9A6942F400629A619B6903F42A
:102ED00000630193019B1BE0B3F1804F0BD103F51D
:102EE0000433DA6942F00102DA61DB6903F00103BD
:102EF0000293029B0CE0154A934209D1124BDA6906
:102F000042F00202DA61DB6903F002030393039BE0
:102F10003046084902F050FC0023E360236101239E
:102F2000A680A360204644F62061FFF749FF04B065
:102F300070BD00BF10870008048A00081C8A0008C2
:102F4000758A0008002C0140001002400004004077
:102F50004FF47A735943FFF733BF38B50446084638
:102F600004F0D4FF0546E06804F0CCFF0146284693
:102F700005F0D4F801462046BDE83840FFF7B2BE60
:102F800008B5084B1B685BB907480221032200F013
:102F900045FA05484FF41651BDE8084000F0E2BA82
:102FA00008BD00BF50130020C413002002284FF0BA
:102FB000000309DD0749C21E51F8220041F8223002
:102FC00020B103685B681847184670474FF0FF3020
:102FD000704700BF78110020022870B50C461546D6
:102FE0000FDC0E4B1B680BB9FFF7CAFF6619B44222
:102FF00005D00B4814F8011B00F044FBF7E7284606
:1030000070BD084B033853F8200020B1BDE8704074
:1030100003681B6818474FF0FF3070BD5013002045
:10302000C413002078110020022810B50C460ADCD9
:103030000B4B1B680BB9FFF7A3FF0A4800F002FB1C
:103040002070012010BD084B033853F8200020B138
:10305000BDE8104003689B6818474FF0FF3010BD73
:1030600050130020C413002078110020022807DD2F
:10307000064B033853F8200020B103681B6918473A
:10308000002070474FF0FF30704700BF78110020DC
:10309000704708B5FFF79DFCFFF7FAFF08BD7047C2
:1030A00008B5FFF7FCFFBDE80840FEF76BBA00006B
:1030B0000C4A10B513681844EFF30881884205D311
:1030C000094B0C221A604FF0FF3010BD0749096808
:1030D00021B1074C246821448842F1D2106018467F
:1030E00010BD00BFF8000020501400207411002013
:1030F000781200200546074C08B52368986802F04E
:103100005BFD2368D86802F057FD0DB1FFF722FC84
:10311000FEE700BF100100200120704708B5FFF74F
:10312000E9FF01207047704770477047704708B546
:10313000FFF7F9FF08BD08B5FFF7F6FF08BD08B5B2
:10314000FFF7F3FF08BD08B5FFF7F0FF08BD00006B
:1031500010B502F027FF044610B9024802F0D8FB70
:10316000204610BD3D8B000808B102F023BF704718
:10317000034653F8042B10B5044602B903602268D5
:103180009A4204D003480449592202F0AFFB206858
:1031900010BD00BF798B00088D8B000810B58EB074
:1031A00000F010FC1D4C1E4B0122236004230493ED
:1031B00004A800230B9307920A9300F011FC38B97E
:1031C000184A136A23F4407343F48073136202E0D5
:1031D000154802F09DFB01224FF4807368468DE88C
:1031E0000C0000F087FF10B1104802F091FB4FF483
:1031F000004393FAA3F3B3FA83F30D4A012142F893
:10320000231006484FF0FF33636001F0FBFA10B162
:10321000084802F07DFB0EB010BD00BF7C120020FC
:103220000028004000100240DE8B0008FE8B0008E2
:1032300000044242278C000810B5164C8CB0164B87
:1032400001A920460022236001F080F902A9002292
:10325000204601F08DFA9DF8083003A809939DF8E7
:103260000930013B07939DF80A3006939DF80B3017
:10327000443308939DF8043005939DF8053004937A
:103280009DF8063003934FF0FF330B9302F09CFF41
:103290000CB010BD7C120020002800401FB504AB0C
:1032A000154C43F80C0D154A1846226002F084FDB7
:1032B000836903A98DF80C300369002201338DF86E
:1032C0000D30C3688DF80E304369443B8DF80F30E4
:1032D00083688DF8083043688DF80930036820460C
:1032E0008DF80A3001F0E4F9204602A9002201F02D
:1032F000D7F804B010BD00BF7C12002000280040A9
:10330000012070474309064900F01F000122824056
:10331000203341F82320BFF34F8FBFF36F8F7047E7
:1033200000E100E00346426810B517491C689201AD
:1033300088188C509A68D9684260024642F8081F83
:103340001969516059699160196A00F11002916020
:103350000021C1848184C1858185B3F91A100131AE
:1033600001D1082305E0B3F9183001330CBF042361
:103370000C23536001F005FD20B1BDE81040034867
:1033800002F0C6BA10BD00BF901200204D8C00089C
:103390001A4BF7B5074653F820001E4600282BD0DD
:1033A000174CBD0163591A6852060AD5DB685906E5
:1033B00007D5144B01211B68984763596FF04002F1
:1033C0001A6063591A6892060DD5DB6898060AD50B
:1033D0000C4B56F827001B6800219847084B6FF0EC
:1033E00020025B591A6063591A68110704D55A699B
:1033F000D20744BF5B68019303B0F0BD54130020B3
:1034000090120020601300200020FFF7C1BF0120B0
:10341000FFF7BEBF0220FFF7BBBF0000F0B50446B8
:1034200085B008460E464549154602F001FA444962
:103430000746284602F0FCF90146384602F0DAF960
:103440002060013004D13F483F49642202F04EFA27
:1034500023683E4A934213D13D4BDA6842F48042DE
:10346000DA60DA6822F48042DA609A6942F48042D3
:103470009A619B6903F480430193019B00232CE034
:10348000344A934213D1324B1A6942F400321A6122
:103490001A6922F400321A61DA6942F40032DA6100
:1034A000DB6903F400330293029B012315E02A4AEF
:1034B000934213D1264B1A6942F480221A611A6989
:1034C00022F480221A61DA6942F48022DA61DB692F
:1034D00003F480230393039B022363603046174960
:1034E00002F06AF92846164902F066F9721C03D008
:1034F00030460121FFF75EFB6B1C03D028460121FB
:10350000FFF758FB4FF41653A3600023E3602361D9
:1035100063612362268365832046FFF703FF2268E9
:103520000C4B9A4207D10D4B01221A600C482146E0
:103530004C2202F055FD05B0F0BD00BF3C880008EC
:10354000C8860008658C0008818C0008003801409E
:10355000001002400044004000480040501300208A
:10356000C41300208160FFF7DDBE0000034B19602B
:103570004168034B43F82120704700BF60130020CF
:103580005413002038B509C80D462149884202D19C
:10359000204925240CE02049884202D11F492624D5
:1035A00006E01F49884219BF00210C461D49272407
:1035B0001D489B01AAB1C258D36815B943F0200336
:1035C00001E043F0400365B2D3602846FEF748FFB0
:1035D00004F007040123154A6D09A34042F8253081
:1035E00038BDC358DA6835B922F02002DA60DB68EA
:1035F0001A0606D538BD22F04002DA60DB689B0669
:1036000004D42046BDE83840FFF77CBE38BD00BF7B
:103610000038014009340008004400400F3400081D
:1036200000480040153400089012002000E100E03E
:103630004368034A9B01D3581868C0F34010704791
:103640009012002038B5054644682846FFF7F0FF81
:103650000028FAD0054AA301D358E968586809B987
:10366000C0B238BDC0F3080038BD00BF90120020C2
:103670004368034A9B01D3581868C0F3C0107047D1
:103680009012002070B506460C4645683046FFF79C
:10369000EFFF0028FAD0054AF168AB01D35809B909
:1036A000E4B201E0C4F308045C6070BD9012002035
:1036B00008488546002103E0074B5B58435004311E
:1036C0000648074B42189A42F6D301F015FCFCF766
:1036D00053FDFEE700500020F4920008EC000020AB
:1036E00040030020FEE77047074A08B5136803202F
:1036F00043F01003136000F025F80F20FFF7CAF81D
:10370000FFF7F1FF002008BD00200240024A1368C5
:1037100001331360704700BF64130020014B186829
:10372000704700BF6413002013B50190FFF7F6FF48
:103730000446FFF7F3FF019B001B9842F9D302B048
:1037400010BD0000074A00F00700D36823F4E063CF
:103750001B041B0C43F0BF6343F4003343EA002314
:10376000D360704700ED00E00023F7B51D4601224D
:103770000C68AA401440944240F0AC804A68122A77
:103780002BD00ED8022A25D004D84AB3012A30D132
:10379000CB682EE0032A1BD0112A2AD1CB68043330
:1037A00027E04F4EB2421BD006D8A6F58016B24293
:1037B00016D006F5803608E04A4EB24210D006F523
:1037C0008036B2420CD0A6F58016B24211D107E085
:1037D00000230EE0CB6808330BE0CB680C3308E025
:1037E0008B682BB1012B0CBF04614461082300E0FE
:1037F0000423FF2C97BF8646A5F108070668AF0093
:1038000084BF4668BF004FF00F0202FA07FC26EAA9
:103810000C0603FA07F746EA070688BF00F1040E14
:10382000CEF800604F68FE0054D52F4E05F0030C13
:10383000D6F818E04FEA8C0C4EF0010EC6F818E0EE
:10384000B66902FA0CF206F001060196019E25F017
:10385000030606F1804606F58036D6F808E02EEA23
:10386000020E224A90420ED002F5806290420CD0A5
:1038700002F5806290420AD002F5806290420CBF4D
:103880000322042204E0002202E0012200E00222DE
:1038900002FA0CF242EA0E02B260154A17F4803FB7
:1038A000166814BF2643A6431660566817F4003FF7
:1038B00014BF2643A6435660966817F4801F14BFB2
:1038C0002643A6439660D668BF024CBF344326EA1F
:1038D0000404D4600135102D7FF449AF03B0F0BD6E
:1038E00000002110000031100010024000080140CB
:1038F00000040140F0B5002531FA05F35DD0012444
:10390000AC400C4057D0FF2C98BF86466FEA0404A9
:103910008BBFA5F1080703684368AF0088BFBF00ED
:103920004FF00F0606FA07F223EA02034FF00402F3
:1039300002FA07F288BF00F1040E1343CEF80030FC
:10394000C36825F00302234002F18042C36002F500
:10395000803205F003079368BF00BE4006EA030EFD
:10396000164B98420ED003F5806398420CD003F5B5
:10397000806398420AD003F5806398420CBF03230A
:10398000042304E0002302E0012300E00223BB4003
:103990009E4510D1936823EA0606094B96601A6883
:1039A00022401A605A6822405A609A6822409A60FF
:1039B000DA681440DC6001359EE7F0BD0008014084
:1039C000000401404FF4807393FAA3F3B3FA83F336
:1039D0009B0003F1844303F5602301221A607047C2
:1039E0000368F7B50546D80703D42B68990773D445
:1039F000F0E0B74C636803F00C03042B07D0636856
:103A000003F00C03082B16D16368DA0313D54FF4C7
:103A1000003393FAA3F2226893FAA3F3B3FA83F381
:103A200003F01F0322FA03F3DB07DED56B68002BDC
:103A3000DBD1012030E26B68B3F5803F13D05BB976
:103A4000236823F480332360236823F480232360D6
:103A5000FFF764FE06462FE0B3F5A02F236806D1DA
:103A600043F480232360236843F4803305E023F488
:103A700080332360236823F480232360FFF74EFE06
:103A800006464FF4003393FAA3F2226893FAA3F3A5
:103A9000B3FA83F303F01F0322FA03F3DF07A4D47E
:103AA000FFF73CFE801B6428EBD90320F4E1FFF70D
:103AB00035FE801B6428F8D84FF4003393FAA3F244
:103AC000226893FAA3F3B3FA83F303F01F0322FAF5
:103AD00003F3D807EBD488E77D4C636813F00C0F31
:103AE00007D0636803F00C03082B20D16368D90367
:103AF0001DD4022393FAA3F2226893FAA3F3B3FA34
:103B000083F303F01F0322FA03F3DA0702D52B69CC
:103B1000012B8ED12268F82191FAA1F1B1FA81F13D
:103B20006B6922F0F8028B401343236052E02A694C
:103B3000012372B393FAA3F2B2FA82F2920002F175
:103B4000844202F584021360FFF7E8FD0646022373
:103B500093FAA3F25E48226893FAA3F3B3FA83F3CD
:103B600003F01F0322FA03F3DB0705D4FFF7D6FDAA
:103B7000801B0228EBD998E70268F82191FAA1F19D
:103B8000B1FA81F16B6922F0F8028B4013430360B4
:103B900020E093FAA3F3B3FA83F39B0003F1844389
:103BA00003F584031A60FFF7B9FD0646022393FA72
:103BB000A3F2226893FAA3F3B3FA83F303F01F038B
:103BC00022FA03F3DF0705D5FFF7A8FD801B0228C3
:103BD000ECD96AE72B681C0746D5AA693C4C01233F
:103BE0003C4912B393FAA3F2B2FA82F241F82230BE
:103BF000FFF794FD0646022393FAA3F293FAA3F289
:103C0000626A93FAA3F3B3FA83F303F01F0322FA71
:103C100003F3D80705D4FFF781FD801B0228EAD9FA
:103C200043E70120FFF780FD1EE093FAA3F3B3FA08
:103C300083F341F82320FFF771FD0646022393FA30
:103C4000A3F293FAA3F2626A93FAA3F3B3FA83F3AB
:103C500003F01F0322FA03F3D90705D5FFF75EFD32
:103C6000801B0228EAD920E72B685A0704D4EA69A6
:103C7000002A40F08680DEE0154C174AE36943F0E5
:103C80008053E361E36903F080530193019B136860
:103C900043F480731360FFF741FD06460E4B1B682B
:103CA000DB0505D4FFF73AFD801B6428F6D9FCE656
:103CB000EB68012B18D08BB9236A23F00103236230
:103CC000236A23F004032362FFF728FD064640E041
:103CD000001002408004424200700040052B236A1D
:103CE00006D143F004032362236A43F0010305E095
:103CF00023F001032362236A23F004032362FFF706
:103D00000DFD0646022393FAA3F293FAA3F2B2FA48
:103D100082F242F0400252099A420CBF226A626A61
:103D200093FAA3F3B3FA83F303F01F03DA40D70740
:103D30009DD4FFF7F3FC41F28833801B9842E1D910
:103D4000B3E6FFF7EBFC41F28833801B98423FF665
:103D5000ACAE022393FAA3F293FAA3F2B2FA82F280
:103D600042F0400252099A420CBF226A626A93FAF8
:103D7000A3F3B3FA83F303F01F03DA40D007E0D4D0
:103D800075E7464C636803F00C03082B3FF451AE13
:103D9000022A4FF080735CD193FAA3F3B3FA83F352
:103DA0009B0003F1844303F5840300221A60FFF7AC
:103DB000B5FC06464FF0007393FAA3F2374F226822
:103DC00093FAA3F3B3FA83F303F01F0322FA03F386
:103DD000D90732D42E6AB6F5803F01BF796821F445
:103DE0000030A968014308BF796063686A6A23F4F8
:103DF00074133243134363604FF0807393FAA3F359
:103E0000B3FA83F39B0003F1844303F58403012297
:103E10001A60FFF783FC05464FF0007393FAA3F294
:103E2000226893FAA3F3B3FA83F303F01F0322FA91
:103E300003F3DA0707D500202EE0FFF76FFC801BA5
:103E40000228B7D931E6FFF769FC401B0228E3D905
:103E50002BE693FAA3F3B3FA83F39B0003F18443B5
:103E600003F5840300221A60FFF758FC05464FF063
:103E7000007393FAA3F2226893FAA3F3B3FA83F3DD
:103E800003F01F0322FA03F3DB07D4D5FFF746FC48
:103E9000401B0228EBD908E603B0F0BD0010024039
:103EA0001F4B70B503F110052E4686B002AC2246BA
:103EB00018685968083303C2AB421446F7D13388F7
:103EC0001848ADF80430416801F00C03082B23D1E9
:103ED0004FF4701292FAA2F2B2FA82F201F4701365
:103EE000D34006AA134413F8102CCB0311D5436812
:103EF0004FF4003191FAA1F1B1FA81F103F40033EA
:103F0000CB4006A90B4413F8140C074BB3FBF0F09D
:103F100000E00648504300E0034806B070BD00BF13
:103F20004A8D00080010024000127A0000093D008E
:103F3000544AF8B51368064603F0070399420D4644
:103F40000AD831688C0713D54F48436823F0F00234
:103F5000B368134343600BE0136823F007030B437C
:103F60001360136803F007038B42EAD00120F8BD09
:103F7000C80706D4434A136803F007039D424DD394
:103F800056E07268404C012A02D14FF4003304E03D
:103F9000022A0CBF4FF00073022393FAA3F12168A9
:103FA00093FAA3F3B3FA83F303F01F0321FA03F3A5
:103FB000D907DBD5636823F003031A436260FFF778
:103FC000ADFB73680746012B0DD1636803F00C034A
:103FD000042BCFD0FFF7A2FB41F28833C01B9842DD
:103FE000F3D90320F8BD022B13D1636803F00C034F
:103FF000082BBFD0FFF792FB41F28833C01B9842D9
:10400000F3D9EEE7FFF78AFB41F28833C01B9842F1
:10401000E7D8636813F00C0FF4D1ABE7136823F013
:1040200007032B431360136803F00703AB429DD1D2
:104030003168154C11F0040F05D0636823F4E06279
:10404000F368134363600B0741BF6368326923F46D
:10405000605343EAC20348BF6360FFF721FF636810
:10406000F02292FAA2F2B2FA82F203F0F003D34005
:10407000064AD35CD840064B18600F20FEF70AFCB6
:104080000020F8BD00200240001002406E8D0008A4
:10409000FC000020084B4FF4E0625B6892FAA2F249
:1040A000B2FA82F203F4E063D340044AD35C044AD8
:1040B0001068D840704700BF001002407E8D000895
:1040C000FC000020084B4FF460525B6892FAA2F2A9
:1040D000B2FA82F203F46053D340044AD35C044A38
:1040E0001068D840704700BF001002407E8D000865
:1040F000FC0000200368F7B5DC07054667D5404C97
:10410000404AE36943F08053E361E36903F080537D
:104110000193019B136843F480731360FFF7FEFA69
:104120000646384B1B68D80506D4FFF7F7FA801B04
:104130006428F6D9032060E0236A314813F4407301
:1041400006D1236A23F440726B68134323623EE076
:104150006A6802F440729342F3D0016A4FF48033EC
:1041600021F4407793FAA3F2B2FA82F2264E4FF08E
:10417000010E46F822E093FAA3F3B3FA83F3002288
:10418000C90746F823200762DBD5FFF7C7FA0646C2
:10419000022393FAA3F293FAA3F2B2FA82F242F064
:1041A000400252099A420CBF226A626A93FAA3F350
:1041B000B3FA83F303F01F03DA40D207C1D4FFF749
:1041C000ADFA41F28833801B9842E1D9B2E7286802
:1041D000830741BF0A494B6823F44042AB6844BFA0
:1041E00013434B6010F0100007D0054900204B68C6
:1041F00023F48002EB6813434B6003B0F0BD00BFB3
:104200000010024000700040000442423F4BF0B5F5
:1042100003F110060446374687B002AD2A461868F7
:104220005968083303C2B3421546F7D13B88022CC4
:10423000ADF8043051D0102C02D0012C62D12EE008
:1042400033494C68086810F080705CD04FF47012ED
:1042500092FAA2F2B2FA82F204F47013D34006AAE0
:104260001344E20313F8103C11D54A684FF40030B0
:1042700090FAA0F0B0FA80F002F40032C24006A832
:10428000024412F8140C234AB2FBF0F000E022487A
:1042900058434B685B0236D4400003232CE040F2C5
:1042A00002311B4A136A1940B1F5817F27D003F40C
:1042B0004073B3F5007F05D1536A49F6404013F0CF
:1042C000020F07E0B3F5407F1CD14FF22440136882
:1042D00013F4003F08BF002015E0FFF7F3FE0C4B7E
:1042E0004FF480425B6892FAA2F2B2FA82F203F4CF
:1042F0004043D34001335B00B0FBF3F003E04FF4E5
:10430000004000E0002007B0F0BD00BF5C8D000859
:104310000010024000127A0000093D0010B5046848
:10432000A069E369A16982B288B2824217BFE369DA
:104330009BB29BB243EA004008BF43EA024010BD73
:104340000368186A5B6A9BB243EA00407047002327
:10435000092803D90A380133C0B2F9E740EA03104B
:10436000C0B2704703090A2200F00F0002FB0300ED
:10437000C0B27047022910B51CD800F2CF744FF4B8
:10438000C873B4FBF3F300F2D47000EB940018444C
:104390006423B4FBF3F417235943092391FBF3F18E
:1043A000001B0A4410440723B0FBF3F3C3EBC30321
:1043B000C01A1BE000F5FA644FF4C873B4FBF3F3C2
:1043C00000F2D27000EB940018446423B4FBF3F4C1
:1043D00017235943092391FBF3F1001B0A440244BC
:1043E0000720B2FBF0F0C0EBC000101AC0B210BD45
:1043F00038B50446FFF792F9054623685A689206D5
:1044000007D4FFF78BF9401BB0F57A7FF5D903206D
:1044100038BD5A68002042F010025A6038BD026868
:1044200038B55368044623F010035360FFF776F95C
:10443000054623685B689B0607D4FFF76FF9401BAE
:10444000B0F57A7FF5D9032038BD002038BD38B5E6
:1044500005460C46FFF7CCFF58B92B68220CA4B2D6
:104460009A612846DC61FFF7DAFF003018BF0120AF
:1044700038BD012038BD38B505460C46FFF7B8FFFA
:1044800058B92B68220CA4B21A6228465C62FFF766
:10449000C6FF003018BF012038BD012038BD70476D
:1044A000F8B5044600284DD000294BD0037C0226E5
:1044B000012B48D001230374467408784D788F7817
:1044C0003AB93C236B434FF4616505FB0030C519D5
:1044D0000FE0FFF747FF06462846FFF743FF3C2360
:1044E00058434FF4616505FB06053846FFF73AFF70
:1044F000054420462946FFF7AAFF064620B10423BB
:104500006374002323741DE022682046536823F05F
:1045100005035360FFF714FF431C01460DD0A8426A
:104520000BD201F5A831204601F5C071FFF7A3FFBA
:1045300018B104236374267404E001236374002318
:10454000237400E001263046F8BD00002DE9F84351
:104550000D461746044610B90120BDE8F88300292E
:10456000FAD003685B685E07F6D4FFF7D7FE4FF416
:104570006162B0FBF2F302FB130281463C20B2FB06
:10458000F0F100FB1122172B6970AA7072D9182262
:10459000B3FBF2F802FB183320462B70FFF7D0FE76
:1045A0000646013005D04E458CBFC9EB06064FF0DC
:1045B000FF363E4B204603FB18994946FFF747FF5D
:1045C0000028C9D1711C204602D006EB090100E089
:1045D0003146FFF750FF0028BED1E07B617BA27B14
:1045E000002621F00203012B55D0052953D0A1F15B
:1045F000070EBEF1010F4ED90A294CD00C294FD01D
:10460000042B01D0092B01D11D2A45E0022925D117
:104610001B2A01D8013221E01C2A18D183B29A0743
:104620001AD14FF0640EB3FBFEF20EFB123292B2BF
:1046300082B94FF4C871B3FBF1F201FB12339BB2A4
:10464000002B13BF01221D220221032106E01D2A97
:1046500004D101E01D2201E001220321013646457B
:10466000BFD1C9B2D2B2E0736173A273FFF782FE09
:10467000207300E02B705FB12878FFF768FE287088
:104680006878FFF764FE6870A878FFF760FEA8708E
:104690000020BDE8F8831E2ABCD901310122DDE7E4
:1046A0001E2AB7D9012201301146D7E780510100F7
:1046B000F8B50D460446002855D0002953D0037C98
:1046C0000220012B50D0012323746074C8784F78E6
:1046D0008E781AB9E0736773A6730AE0FFF742FE9B
:1046E000E0733846FFF73EFE60733046FFF73AFE50
:1046F000A073E07B617BA27BFFF73CFE20732870F8
:104700002046FFF70BFE4FF46163B0FBF3F3182B69
:1047100024D91825B3FBF5F3144D05FB13052046EA
:104720002946FFF794FE064620B104236374002354
:10473000237418E02046FFF703FE431C01460DD00A
:10474000A8420BD201F5A831204601F5C071FFF750
:1047500092FE18B104236374267404E00123002040
:1047600063742074F8BD0120F8BD00BF80510100C2
:104770002DE9F341904600220C46ADF804208DF857
:104780000620054608B901261DE00029FBD001A935
:10479000FFF7DCFE06460028F5D12B7BE87B6F7B1C
:1047A000AD7B2370E0706770A570B8F1000F0AD080
:1047B000FFF7CDFDE0703846FFF7C9FD6070284671
:1047C000FFF7C5FDA070304602B0BDE8F08138B5F6
:1047D0000446A8B10268536823F008035360FEF74B
:1047E0009DFF054623685B681B0707D4FEF796FF0D
:1047F000401BB0F57A7FF5D9032038BD002038BDC5
:10480000012038BD10B50446002847D0437C03F092
:10481000FF0213B90274FFF742FE022363742046BD
:10482000FFF7D5FFD8B92046FFF7E2FDB8B92268F7
:10483000536823F007035360A268194B1AB1196B30
:1048400021F001011963D96A21F460710A43DA6227
:104850006068431C07D10120FFF7D8FC10B904237E
:1048600063741BE001382268936823F00F0343EA66
:1048700010439360D36880B21B0C1B041843D060B4
:104880002046FFF7CCFD012318B1042262741846BC
:1048900010BDE0736373A373637410BD012010BD7A
:1048A000006C0040036A70B523F001030362036AE1
:1048B000426884690D6824F07304254323F00204E0
:1048C0008B6823430A4CA0420BD1CC6823F0080329
:1048D00023438E694C6922F44072344323F004036D
:1048E000224342604A6885614263036270BD00BF33
:1048F000002C0140036A30B523F480730362036A1D
:104900004268C4690D6824F073042C438D6823F455
:10491000007343EA05230C4DA8420ED1CD6823F461
:10492000006343EA05234D6922F4405242EA05122E
:104930008D6923F4806342EA051242604A68C461CB
:10494000C263036230BD00BF002C0140036A30B572
:1049500023F480530362036A4468C2690D6822F439
:10496000E64242EA05228D6823F4005343EA053308
:10497000064DA84202BF4D6924F4804444EA8514E0
:104980004460C2614A680264036230BD002C014089
:1049900070470268022380F83930136843F001033E
:1049A0001360012380F83930002070477047000001
:1049B000184A036890420AD0B0F1804F07D0A2F5A0
:1049C0009432904203D002F58062904215D14A6839
:1049D00023F0700313430F4A90420AD0B0F1804F86
:1049E00007D0A2F59432904203D002F58062904243
:1049F00003D1CA6823F44073134303608B68C36216
:104A00000B688362034B984204BF0B690363012365
:104A100043617047002C014010B50446A0B190F8E6
:104A2000393003F0FF021BB980F83820FFF7B0FFE0
:104A3000022384F839302068211DFFF7B9FF0123D4
:104A400084F83930002010BD012010BD10B5044697
:104A5000A0B190F8393003F0FF021BB980F838207C
:104A6000FFF7A4FF022384F839302068211DFFF7E7
:104A70009FFF012384F83930002010BD012010BDB4
:104A8000036A30B523F010030362036A4268846945
:104A90000D6824F4E64444EA05248D6823F02003DD
:104AA00043EA05130B4DA8420ED1CD6823F08003D5
:104AB00043EA05134D6922F4406242EA85028D699A
:104AC00023F0400342EA850242604A6884618263BF
:104AD000036230BD002C014038B590F838300446F0
:104AE000012B0D464FF0020058D0012384F83830D6
:104AF00084F839000C2A4BD8DFE802F0074A4A4A0A
:104B0000174A4A4A294A4A4A39002068FFF7CAFE2A
:104B100023689A6942F008029A619A6922F00402B5
:104B20009A6199692A690A430FE02068FFF7A8FF94
:104B3000236829699A6942F400629A619A6922F4A9
:104B400080629A619A6942EA01229A6120E02068B3
:104B5000FFF7D0FE2368DA6942F00802DA61DA6909
:104B600022F00402DA61D9692A690A430FE0206859
:104B7000FFF7ECFE23682969DA6942F40062DA6122
:104B8000DA6922F48062DA61DA6942EA0122DA61E2
:104B90000123002084F8393084F8380038BD10B57E
:104BA0000123046A8B4024EA03030362036A8A40F8
:104BB0001343036210BD000010B5044601220068D3
:104BC000FFF7EDFF2368064A0020934202BF5A6CAC
:104BD00042F400425A641A6842F001021A6010BDA1
:104BE000002C014010B5044601220068FFF7D7FFF2
:104BF0002368064A0020934202BF5A6C42F40042E6
:104C00005A641A6842F001021A6010BD002C01407B
:104C100010B50423046A8B4024EA03030362036A89
:104C20008A401343036210BD10B504460422006895
:104C3000FFF7EEFF236800205A6C42F400425A64EA
:104C40001A6842F001021A6010BD00002DE9F04719
:104C5000056801692B69804623F44052C368192412
:104C600013432B618368EA6819434369194322F4AB
:104C7000B05323F00C030B43EB606B6923F44072D9
:104C8000836913436B613D4B9D4231D1FFF71AFAA3
:104C90006043D8F804604FF06409B600B0FBF6F644
:104CA000FFF710FA6043D8F80430B6FBF9F69B0022
:104CB000B0FBF3F7FFF706FA6043D8F8043036018B
:104CC0009B00B0FBF3F0B0FBF9F009FB10731B0184
:104CD0003233B3FBF9F303F0F007FFF7F3F9604366
:104CE000D8F804209200B0FBF2FAFFF7EBF930E0BD
:104CF000FFF7D0F96043D8F804604FF06409B600BC
:104D0000B0FBF6F6FFF7C6F96043D8F80430B6FBFF
:104D1000F9F69B00B0FBF3F7FFF7BCF96043D8F856
:104D2000043036019B00B0FBF3F0B0FBF9F009FB57
:104D300010731B013233B3FBF9F303F0F007FFF7F5
:104D4000A9F96043D8F804209200B0FBF2FAFFF70B
:104D5000A1F94443D8F804008000B4FBF0F0B0FBA4
:104D6000F9F009FB10A212013232B2FBF9F202F0A3
:104D70000F02BB183344AB60BDE8F0870038014038
:104D8000704710B5044630B390F8393003F0FF0295
:104D90001BB980F83820FFF7F3FF2268022384F85C
:104DA0003930D368204623F40053D360FFF74EFF19
:104DB000236800201A6922F490421A615A6922F08D
:104DC0002A025A61DA6842F40052DA600123E06391
:104DD00084F8393010BD012010BD0000114A124B7B
:104DE000516801F00C01042901D0082901D00F49B4
:104DF0000EE051685068C1F38341C00301F1020124
:104E000002D55068800301D5094800E007484143B6
:104E1000196052680749C2F30312895C1A68CA40D4
:104E20001A60704700100240FC00002000127A0057
:104E300000093D006E8D000830B5012391B0069346
:104E400010B94FF4803301E04FF4A02307934FF4DF
:104E50008033002402250E9306A84FF4E013089433
:104E60000D950F93FEF7BCFD78B90F2301930390C6
:104E70004FF480630590294601A802950493FFF73B
:104E800057F8B0FA80F0400900E0204611B030BD7C
:104E900030B5032391B0069301230A931023002415
:104EA0000B9302254FF4601306A807940D950E94FA
:104EB0000F93FEF795FD78B90F23019303904FF4FC
:104EC00080630590294601A802950493FFF730F806
:104ED000B0FA80F0400900E0204611B030BD08B5BE
:104EE0000120FFF7A9FF30B9FFF7A6FF18B9FFF7B8
:104EF000CFFF00B9FEE708BD10B5174C236843F09B
:104F0000010323606268154B1340636023684FF010
:104F1000006223F0847323F480332360236823F436
:104F200080232360636823F4FE0363604FF41F0350
:104F3000A3600B4B9A600B4B0B4A1A60FEF7D4FB35
:104F4000FFF7CDFF236943F004032361236923F0B6
:104F50000403236110BD00BF001002400000FFF8F1
:104F600000ED00E0FC00002000127A00044B054A2E
:104F700013605863DA6842F00202DA60704700BFDB
:104F80000008004010140020054B186830B90122B9
:104F90001A60044A044B1A60FDF77CBC704700BFDE
:104FA0007013002000080040101400200B4B0C4A26
:104FB00010B513600B4A1C4612680AB9FFF7E4FFEC
:104FC000094A002309491370636A08681278012AA4
:104FD0000ABF074B03EB0040186810BD00080040F3
:104FE00010140020701300204C14002074130020B3
:104FF0006813002038B50446FFF7D8FF144B201A79
:105000005D6A0028ADB203DCBDE8384000F068BC42
:10501000104B114C021480B21A6020802288C5F512
:105020007F4392B2FF339A4207DC2088284480B243
:10503000FFF79CFF0023238038BD4FF6FF70FFF77A
:1050400095FF208880B20130284480B2208038BD8E
:1050500000080040781300206C130020034B044A22
:105060001360DA6822F00202DA607047000800403C
:1050700010140020044B054A13601A69920744BFBC
:105080006FF002021A6170470008004010140020FF
:105090007047704770B504460546064B00F1400660
:1050A000036055F8040F08B1FEF75EF8B542F8D179
:1050B000204670BD908D000810B50446FFF7EAFF4A
:1050C0002046FEF751F8204610BD00002DE9F041C2
:1050D0000546A84688B0ADF80430BDF938302F48F1
:1050E000ADF80630BDF93C300024ADF80830BDF90C
:1050F00040302860ADF80A30BDF94430ADF80010FA
:10510000ADF80C30BDF94830ADF80220ADF80E30E6
:10511000BDF94C306C64ADF81030BDF95030ADF8CD
:105120001230BDF95430ADF81430BDF95830ADF837
:105130001630BDF95C30ADF81830BDF96030ADF80F
:105140001A30BDF96430ADF81C30BDF96830ADF8E7
:105150001E303DF914707B1C0CD01420FDF7F8FFB5
:1051600006460021142200F046FF3046394600F082
:1051700006FB00E0002601371FBF01236A6CA34035
:10518000134304F1010448F8046F18BF6B64102C3A
:10519000DFD1284608B0BDE8F08100BF908D00083F
:1051A00003682DE9F0419B680546984701240027D4
:1051B00055F8246004F1FF3896B1B6F90030013398
:1051C00004D10C480C49482200F090FBB3681A68DF
:1051D00073681A4214BF0123002303FA08F31F4324
:1051E0000134112CE4D12B682846DB6898473846F7
:1051F000BDE8F0819E860008A08D00087047000081
:10520000B0F9003010B50133044604D1064807490F
:10521000482200F06BFBA3681A6863681A4214BF47
:105220000120002010BD00BF9E860008A08D000850
:105230000430FFF7E5BF000010B50446074B40F807
:10524000183BFDF755FA04F13800FCF707F904F1B3
:105250002800FCF703F9204610BD00BF708E00083F
:1052600010B50446FFF7E8FF2046FDF77DFF204616
:1052700010BD000038B504460D46FCF7EFF82CB120
:105280000DB9E56038BD024B2560E36038BD00BF55
:10529000788500082DE9F041054604460E46154B79
:1052A00004F1180745F8043B28460021142200F0B9
:1052B000A2FEDFF8488010223846002100F09BFE55
:1052C00000236363636404F128004146FFF7D2FFC3
:1052D00004F138004146FFF7CDFF3146064A234628
:1052E0003846FDF77BF92846314600F048FA20465B
:1052F000BDE8F081708E0008D1530008FD51000810
:105300002DE9F0410D46064600F014FBEF6806F16A
:10531000280406F11808204677B1FCF79FF83CB145
:10532000EB681BB15B68204629469847EB687363BE
:10533000012140460A4605E00549FFF79BFF40462C
:105340003A460121FDF70AFABDE8F04100F01CBB26
:10535000FD5100082DE9F0410D46064600F0EAFA3D
:10536000EF6806F1380406F11808204677B1FCF71B
:1053700075F83CB1EB681BB15B682046294698473D
:10538000EB68736440460221012205E00549FFF7FE
:1053900071FF40463A460221FDF7E0F9BDE8F041D1
:1053A00000F0F2BAFD510008C36810B504462BB9ED
:1053B0000548064940F2E71200F098FAE3682046F3
:1053C000BDE810401B681847788E00087D8E0008E5
:1053D000012908B502D0022902D008BD283000E01A
:1053E0003830FFF7E1FF08BD7047704710B504463D
:1053F00000F098F8014B2046236010BDD08E0008C5
:1054000038B5044603681B689847204600F080F8CA
:105410000546236820465B689847284638BD38B55E
:1054200004460D4603681B6898472946204600F04D
:1054300072F80546236820465B689847284638BDC1
:1054400070477047704710B588B1146853680CB93D
:10545000DA070CD513F0010F4FEA630318BFC258E7
:10546000184418BF14592346BDE81040184710BD12
:1054700070B509014418D4F8A43001F19805054429
:105480002BB90648064940F2E71200F02FFAD4F88B
:10549000A4302846BDE870401B681847788E000885
:1054A0007D8E000870B505460E46044655F84C3B07
:1054B0001B68984728463146FEF754F82368C4F81D
:1054C000B8602046BDE870405B68184738B50546AF
:1054D00055F84C3B04461B6898472846FEF7A8F849
:1054E0000546236820465B689847284638BD38B58E
:1054F000054655F84C3B04461B6898472846FEF77E
:10550000B7F80546236820465B689847284638BDAB
:105510004C30FEF797B810B50C464C30FEF7B2F899
:10552000204610BD2DE9F3479046024604469A46B0
:105530002B4B002542F8083B009502AB01958946AC
:1055400013E90300274B82E80300236148F20703B5
:105550006361254BE561A46122626362BFF36F8FD3
:10556000BFF34F8F04F14C0604F19807656365643F
:1055700084F8485084F84950304629464C2200F0BF
:105580003AFDC4F8A450C4F8B450C4F8B8A03846E2
:10559000FBF764FF2FB1154BC4F89830144BC4F8D7
:1055A000A43004F1A8052846FBF758FF2DB10F4B96
:1055B000C4F8A8300E4BC4F8B430424630464946D1
:1055C000FDF72CFF3046D4F8B810FDF7CBFF30467E
:1055D00008492246FDF7CAFF204602B0BDE8F08721
:1055E000E88E000801A090E84754000841540008E4
:1055F00078850008715400082DE9F0410746884677
:10560000164657F84C3B05461B68984700F092F940
:10561000D8F80C3034019834ABB12C442046FBF759
:105620001DFF64B1D8F80C301BB15B6820464146C1
:105630009847D8F80C2005EB0613C3F8A420384689
:105640003146012211E005EB04084046FBF706FF56
:10565000B8F1000F06D00A4B0A4A2B5105EB06138E
:10566000C3F8A420384631460022FDF78BFF00F036
:105670008BF92B682846BDE8F0415B68184700BFEE
:10568000415400087885000810B5044600F052F92E
:1056900023682BB9E06800F01BF9012360602360E8
:1056A000BDE8104000F070B938B5054600F042F989
:1056B0002C6824B1E86800F00BF96C68041B00F05A
:1056C00063F9204638BD38B5054600F033F9284661
:1056D000AC68FFF7E9FF044400F056F9204638BDF6
:1056E00008B5FFF7F0FF4FF47A7390FBF3F008BDB5
:1056F00010B5044600F01EF9E06800F0E9F8002358
:105700006060A360BDE8104000F03EB9002310B512
:10571000036043608360044600F0DEF8E0602046EA
:10572000FFF7E6FF204610BD38B5B0F9003004465B
:1057300001330D4604D1064806493A2200F0D6F856
:1057400063680DB1E26800E02269136038BD00BFF4
:105750009E860008A08D000870B50E4604461546CA
:10576000FCF7B4FE013609D020460021FCF7CAFE42
:1057700020462946BDE87040FCF7C0BE70BD00223F
:10578000FFF7EABF70B50E4604461546FCF79EFECD
:1057900001360DD020462946FFF7C6FF20460121DD
:1057A000FCF7B0FE2046BDE870400021FCF7A6BE25
:1057B00070BD0022FFF7E6BF10B50446013001D1ED
:1057C00010BD0C31B1F900305A1C0BD0A342F8D1F6
:1057D00020468968FDF74EF92046BDE810400021BB
:1057E000FDF7E8B90248BDE8104000F091B800BFED
:1057F000F88E0008884208B50AD0431C07D0013152
:1058000006D0044800F084F84FF0FF3008BD084689
:1058100008BD00BF098F0008B1F900305A1C05D03F
:10582000834201D1486870470C31F5E7184670474C
:10583000421C10B5044607D0FFF7EEFF431C044698
:1058400002D1024800F064F8204610BD1A8F00080B
:10585000B1F900305A1C05D0834201D188687047E5
:105860000C31F5E718467047421C10B5044607D0C6
:10587000FFF7EEFF431C044602D1024800F048F84F
:10588000204610BD3A8F0008036870B5DB680446F7
:10589000984763685A6823681AB99B68BDE87040E6
:1058A00018475B6815689847281A0028636808DC61
:1058B0005A68916859601B68002BEAD05068984775
:1058C000E7E721685A68BDE870400B69106818471F
:1058D00003685B6818470000004870476C8F000839
:1058E0000148FFF7D1BF00BF6C8F000870B50646B6
:1058F0000D46144600F01EF831462A46234603485A
:10590000FDF75AF8BDE87040FDF724B8748F000821
:105910000FB407B504A951F8040B0191FDF724F861
:105920000120FDF7FBFBEFF3108000F0010080F099
:105930000100704738B5FFF7F6FF80F00100C5B2EF
:1059400072B60C4C23680BB90B4B1D7023680133E6
:1059500004D10A480A493522FFF7C8FF23682BB152
:1059600025B9084806493922FFF7C0FF23680133EB
:10597000236038BD8413002088130020A58F000801
:10598000CB8F00080E90000810B50A4C236883B135
:10599000FFF7C9FF20B1084808494A22FFF7A6FFD0
:1059A0002368013B236023681BB9054B1B7803B9AF
:1059B00062B610BD841300200E900008CB8F000843
:1059C0008813002038B50446FFF7F0FA0546FFF7C4
:1059D000EDFA401BA042FAD338BD4FF47A73584316
:1059E000FFF7F0BF10B504460748FDF7C1FB074BB2
:1059F0001B6803B19847064B1B680BB120469847BC
:105A00000148FDF7B5FB10BD8C13002008010020F4
:105A10000001002038B505460A48FDF7A9FB0A4BEE
:105A20001B681BB1984708B9FFF7DCFF074B1C68E0
:105A30000CB1A047044605B12C600248FDF798FB65
:105A4000204638BD8C130020040100200C010020EA
:105A5000FDF78ABB8A892DE9F041054610070C46FF
:105A60005AD44B68002B05DC0B6C002B02DC0020A9
:105A7000BDE8F081E66A002EF9D0002312F48052CE
:105A80002F682B6033D0606DA3895A0705D56368F2
:105A9000C01A636B0BB1236CC01A00230246E66A7E
:105AA000216A2846B047431CA38906D129681D29CD
:105AB0004BD82B4ACA40D60747D5002262602269DC
:105AC000D904226004D5421C01D12B6803B960655A
:105AD000616B2F600029CAD004F14403994202D0BF
